SAFREAENRT   0000E              N00000000E000000000                                                                                 
SAFREAENRT   0010N              N00000000W010000000                                                                                 
SAFREAENRT   0045E              N00000000E045000000                                                                                 
SAFREAENRT   0046E              N00000000E046000000                                                                                 
SAFREAENRT   0048E              N00000000E048000000                                                                                 
SAFREAENRT   0051E              N00000000E051000000                                                                                 
SAFREAENRT   0054E              N00000000E054000000                                                                                 
SUSAEAENRT   00MKK              N22314100W156101546                                                                                 
SUSAEAENRT   00UPP              N20340000W154073000                                                                                 
SAFREAENRT   0110N              N01000000W010000000                                                                                 
SAFREAENRT   0120N              N01000000W020000000                                                                                 
SAFREAENRT   0220N              N02000000W020000000                                                                                 
SAFREAENRT   0310N              N03000000W010000000                                                                                 
SAFREAENRT   0320N              N03000000W020000000                                                                                 
SAFREAENRT   0348E              N03000000E048000000                                                                                 
SAFREAENRT   0351E              N03000000E051000000                                                                                 
SAFREAENRT   0354E              N03000000E054000000                                                                                 
S   EAENRT   0357E              N03000000E057000000                                                                                 
SAFREAENRT   0410N              N04000000W010000000                                                                                 
SAFREAENRT   0410S              S04000000E010000000                                                                                 
SAFREAENRT   0420N              N04000000W020000000                                                                                 
SAFREAENRT   0454E              N04000000E054000000                                                                                 
S   EAENRT   04THT              N73085200W068405900                                                                                 
SAFREAENRT   0504E              N05000000E004000000                                                                                 
SAFREAENRT   050AS              S05000000E0024759100                                                                                
SAFREAENRT   0510N              N05000000W010000000                                                                                 
SAFREAENRT   0510S              S05000000E010000000                                                                                 
SAFREAENRT   0520N              N05000000W020000000                                                                                 
S   EAENRT   0530N              N05000000W030000000                                                                                 
SAFREAENRT   0545S              S05000000E045000000                                                                                 
SAFREAENRT   0548S              S05000000E048000000                                                                                 
SAFREAENRT   0549S              S05000000E049000000                                                                                 
SAFREAENRT   0620N              N06000000W020000000                                                                                 
S   EAENRT   0630N              N06000000W030000000                                                                                 
SAFREAENRT   0651E              N06000000E051000000                                                                                 
SAFREAENRT   0654E              N06000000E054000000                                                                                 
S   EAENRT   0657E              N06000000E057000000                                                                                 
SASIEAENRT   0660E              N06000000E060000000                                                                                 
SAFREAENRT   0710W              S07000000W010000000                                                                                 
SAFREAENRT   0720N              N07000000W020000000                                                                                 
S   EAENRT   0730N              N07000000W030000000                                                                                 
SAFREAENRT   0820N              N08000000W020000000                                                                                 
S   EAENRT   0830N              N08000000W030000000                                                                                 
SAFREAENRT   0920N              N09000000W020000000                                                                                 
S   EAENRT   0930N              N09000000W030000000                                                                                 
SAFREAENRT   0951E              N09000000E051000000                                                                                 
SAFREAENRT   0954E              N09000000E054000000                                                                                 
S   EAENRT   0957E              N09000000E057000000                                                                                 
SASIEAENRT   0960E              N09000000E060000000                                                                                 
SUSAEAENRT   10065              N44572008W067012592                                                                                 
SUSAEAENRT   10068              N48225004W123094435                                                                                 
SAFREAENRT   1015N              N10000000W015000000                                                                                 
SAFREAENRT   1020N              N10000000W020000000                                                                                 
S   EAENRT   1025N              N10000000W025000000                                                                                 
S   EAENRT   1030N              N10000000W030000000                                                                                 
SSAMEAENRT   1033N              N10000000W033000000                                                                                 
SSAMEAENRT   1034N              N10000000W034000000                                                                                 
SSAMEAENRT   1035N              N10000000W035000000                                                                                 
SUSAEAENRT   10405              N28491880W088002900                                                                                 
SUSAEAENRT   10406              N28415195W088002366                                                                                 
SAFREAENRT   1045S              S10000000E045000000                                                                                 
SAFREAENRT   1049S              S10000000E049000000                                                                                 
SAFREAENRT   1050S              S10000000E050000000                                                                                 
SAFREAENRT   1051S              S10000000E051000000                                                                                 
S   EAENRT   1060S              S10000000E060000000                                                                                 
SUSAEAENRT   10628              N27592308W084574251                                                                                 
SUSAEAENRT   10960              N41080665W072045327                                                                                 
SUSAEAENRT   10996              N43341924W066595786                                                                                 
SUSAEAENRT   10997              N43155106W066595784                                                                                 
SUSAEAENRT   11015              N48295922W124544440                                                                                 
SAFREAENRT   1120N              N11000000W020000000                                                                                 
SUSAEAENRT   11303              N28415215W088002366                                                                                 
SUSAEAENRT   11304              N28491684W088002896                                                                                 
S   EAENRT   1130N              N11000000W030000000                                                                                 
SUSAEAENRT   11313              N27595428W084573671                                                                                 
SUSAEAENRT   11383              N54371022W131062187                                                                                 
SUSAEAENRT   11384              N54311164W131385621                                                                                 
SUSAEAENRT   11386              N54302950W133012049                                                                                 
SUSAEAENRT   11586              N33542702W078014196                                                                                 
SUSAEAENRT   11588              N30000090W078380135                                                                                 
SUSAEAENRT   11725              N48595937W123080971                                                                                 
SUSAEAENRT   11726              N48441936W123062468                                                                                 
SUSAEAENRT   11727              N48534437W123072470                                                                                 
SUSAEAENRT   11752              N48153244W123030203                                                                                 
SUSAEAENRT   11785              N40473776W072311142                                                                                 
SUSAEAENRT   11923              N48595937W123063030                                                                                 
SUSAEAENRT   12106              N39521801W073352513                                                                                 
SUSAEAENRT   12171              N41241342W070242108                                                                                 
SUSAEAENRT   12173              N42374284W070090092                                                                                 
SUSAEAENRT   12174              N42564953W070073794                                                                                 
SUSAEAENRT   12203              N48295922W124504489                                                                                 
SAFREAENRT   1220N              N12000000W020000000                                                                                 
S   EAENRT   1230N              N12000000W030000000                                                                                 
SUSAEAENRT   12375              N59595698W168000823                                                                                 
SAFREAENRT   13.26              N11000000E052185171                                                                                 
SAFREAENRT   13.47              N11000000E052215273                                                                                 
SAFREAENRT   13.53              N11000000E052224947                                                                                 
SUSAEAENRT   13073              N39505131W073321152                                                                                 
SUSAEAENRT   13074              N40480746W072270891                                                                                 
SUSAEAENRT   13094              N54371022W131062187                                                                                 
SAFREAENRT   1320N              N13000000W020000000                                                                                 
SUSAEAENRT   13224              N38055926W076395085                                                                                 
S   EAENRT   1330N              N13000000W030000000                                                                                 
SUSAEAENRT   13563              N40385300W074005790                                                                                 
SUSAEAENRT   13573              N40574890W073353990                                                                                 
SUSAEAENRT   13598              N40021711W073430585                                                                                 
SUSAEAENRT   13608              N40265568W073325036                                                                                 
SUSAEAENRT   13610              N40281258W074023680                                                                                 
SUSAEAENRT   13612              N40385026W072452116                                                                                 
SUSAEAENRT   13613              N40410546W072361114                                                                                 
SUSAEAENRT   13766              N48145510W123274040                                                                                 
SUSAEAENRT   13919              N41135730W068493220                                                                                 
SUSAEAENRT   13920              N40535130W069275990                                                                                 
SAFREAENRT   1400S              S14000000E000000000                                                                                 
SAFREAENRT   1408W              S14000000W008000000                                                                                 
SUSAEAENRT   14106              N41242390W070245420                                                                                 
SUSAEAENRT   14110              N42005600W068563230                                                                                 
SUSAEAENRT   14134              N42414180W069562650                                                                                 
SUSAEAENRT   14135              N43234340W069501910                                                                                 
SAFREAENRT   1420N              N14000000W020000000                                                                                 
S   EAENRT   1430N              N14000000W030000000                                                                                 
SUSAEAENRT   14312              N44535720W067000000                                                                                 
SUSAEAENRT   14361              N28482720W088002840                                                                                 
SUSAEAENRT   14600              N58272960W160004830                                                                                 
SUSAEAENRT   14601              N60190240W147450160                                                                                 
SUSAEAENRT   14812              N29264890W083160060                                                                                 
SUSAEAENRT   15001              N48225004W123094435                                                                                 
SUSAEAENRT   15075              N35264320W121034388                                                                                 
SAFREAENRT   1520N              N15000000W020000000                                                                                 
S   EAENRT   1525N              N15000000W025000000                                                                                 
S   EAENRT   1530N              N15000000W030000000                                                                                 
SSAMEAENRT   1531N              N15000000W031000000                                                                                 
SSAMEAENRT   1532N              N15000000W032000000                                                                                 
SSAMEAENRT   1535N              N15000000W035000000                                                                                 
SAFREAENRT   1545S              S15000000E045000000                                                                                 
SAFREAENRT   1552S              S15000000E052000000                                                                                 
SAFREAENRT   1553S              S15000000E053000000                                                                                 
S   EAENRT   1555S              S15000000E055000000                                                                                 
SEUREAENRT   15SNT              N40000000W016000000                                                                                 
SAFREAENRT   1617N              N16000000W017000000                                                                                 
SAFREAENRT   1620N              N16000000W020000000                                                                                 
SUSAEAENRT   16262              N29050338W083252087                                                                                 
S   EAENRT   1630N              N16000000W030000000                                                                                 
S   EAENRT   1632N              N16000000W032000000                                                                                 
S   EAENRT   1670S              S16000000E070000000                                                                                 
SUSAEAENRT   17042              N40190307W073025199                                                                                 
SUSAEAENRT   17044              N41001598W071211966                                                                                 
SUSAEAENRT   17045              N40572597W071535364                                                                                 
SAFREAENRT   1720N              N17000000W020000000                                                                                 
S   EAENRT   1730N              N17000000W030000000                                                                                 
S   EAENRT   1737N              N17000000W037000000                                                                                 
SAFREAENRT   1817N              N18000000W017000000                                                                                 
SAFREAENRT   1820N              N18000000W020000000                                                                                 
S   EAENRT   1830N              N18000000W030000000                                                                                 
SUSAEAENRT   18327              N20164580W156320870                                                                                 
SUSAEAENRT   18328              N20150160W156164350                                                                                 
SUSAEAENRT   18330              N20280000W156221690                                                                                 
SUSAEAENRT   18337              N20140319W155025618                                                                                 
SUSAEAENRT   18436              N54301610W133014890                                                                                 
SUSAEAENRT   18437              N54310594W131392711                                                                                 
SUSAEAENRT   18439              N54383711W130581985                                                                                 
SUSAEAENRT   18514              N58434270W1574037100                                                                                
SUSAEAENRT   18524              N55335020W132373440                                                                                 
SUSAEAENRT   18527              N54383980W130580550                                                                                 
SUSAEAENRT   18528              N54364902W131081938                                                                                 
SUSAEAENRT   18530              N54311164W131385621                                                                                 
SUSAEAENRT   18531              N54302950W133012049                                                                                 
S   EAENRT   1865S              S18000000E065000000                                                                                 
S   EAENRT   1870S              S18000000E070000000                                                                                 
SAFREAENRT   1920N              N19000000W020000000                                                                                 
S   EAENRT   1930N              N19000000W030000000                                                                                 
SAFREAENRT   2010S              S20000000E010000000                                                                                 
SAFREAENRT   2020N              N20000000W020000000                                                                                 
S   EAENRT   2025N              N20000000W025000000                                                                                 
S   EAENRT   2027N              N20000000W027000000                                                                                 
S   EAENRT   2028N              N20000000W028000000                                                                                 
S   EAENRT   2029N              N20000000W029000000                                                                                 
S   EAENRT   2030N              N20000000W030000000                                                                                 
S   EAENRT   2032N              N20000000W032000000                                                                                 
S   EAENRT   2060S              S20000000E060000000                                                                                 
S   EAENRT   2065S              S20000000E065000000                                                                                 
S   EAENRT   2070S              S20000000E070000000                                                                                 
SAFREAENRT   2120N              N21000000W020000000                                                                                 
S   EAENRT   2130N              N21000000W030000000                                                                                 
SUSAEAENRT   21408              N30400125W081221841                                                                                 
S   EAENRT   2165S              S21000000E065000000                                                                                 
S   EAENRT   2170S              S21000000E070000000                                                                                 
SUSAEAENRT   21711              N56234273W161022334                                                                                 
SUSAEAENRT   21909              N21121170W155071660                                                                                 
SUSAEAENRT   21911              N20190910W155173590                                                                                 
SUSAEAENRT   21YZS              N61340105W089025957                                                                                 
SUSAEAENRT   22051              N21382650W155091610                                                                                 
SUSAEAENRT   22187              N33402587W118091113                                                                                 
SAFREAENRT   2220N              N22000000W020000000                                                                                 
SUSAEAENRT   22241              N41053011W070564721                                                                                 
SUSAEAENRT   22393              N22031480W156412350                                                                                 
SUSAEAENRT   22394              N22273720W1564709100                                                                                
SUSAEAENRT   22711              N57395893W135405908                                                                                 
SEUREAENRT   22SNT              N45000000W014000000                                                                                 
SAFREAENRT   2320N              N23000000W020000000                                                                                 
S   EAENRT   2325N              N23000000W025000000                                                                                 
SUSAEAENRT   23502              N31501639W080521327                                                                                 
SUSAEAENRT   23581              N26331430W078584090                                                                                 
SUSAEAENRT   23635              N39312502W074081929                                                                                 
SUSAEAENRT   23778              N40322128W074061441                                                                                 
SUSAEAENRT   23838              N48502257W123011968                                                                                 
SUSAEAENRT   23840              N48542547W123091180                                                                                 
SAFREAENRT   2420N              N24000000W020000000                                                                                 
SUSAEAENRT   24550              N35354300W071062450                                                                                 
SUSAEAENRT   24558              N22193420W156201250                                                                                 
SSPAEAENRT   247PQ              N33450000E165000000                                                                                 
SUSAEAENRT   24824              N40340507W074030760                                                                                 
SUSAEAENRT   24943              N40264860W073330840                                                                                 
SUSAEAENRT   24950              N40222010W073275410                                                                                 
SEUREAENRT   24DUB              N55051410W0083410100                                                                                
SUSAEAENRT   25105              N39051050W075031264                                                                                 
SUSAEAENRT   25106              N39345832W074161411                                                                                 
SAFREAENRT   2510S              S25000000E010000000                                                                                 
SUSAEAENRT   25111              N25113660W076000000                                                                                 
SUSAEAENRT   25112              N39313842W074195312                                                                                 
SUSAEAENRT   25114              N39485963W074004657                                                                                 
SUSAEAENRT   25133              N41112135W072502165                                                                                 
SUSAEAENRT   25157              N41045565W072575486                                                                                 
SAFREAENRT   2515N              N25000000W015000000                                                                                 
SASIEAENRT   251PQ              N35320683E149594546                                                                                 
SAFREAENRT   2520N              N25000000W020000000                                                                                 
SAFREAENRT   2523N              N25000000W023000000                                                                                 
SUSAEAENRT   25243              N41025205W073104370                                                                                 
SUSAEAENRT   25249              N41003165W073253552                                                                                 
SUSAEAENRT   25340              N28591450W0825402100                                                                                
SUSAEAENRT   25876              N40292668W074074641                                                                                 
SAFREAENRT   2606S              S26000000E006000000                                                                                 
SAFREAENRT   2610S              S26000000E010000000                                                                                 
SAFREAENRT   2620N              N26000000W020000000                                                                                 
SAFREAENRT   2622N              N26000000W022000000                                                                                 
SUSAEAENRT   26464              N20463560W069185040                                                                                 
SUSAEAENRT   26465              N21234550W068320650                                                                                 
SUSAEAENRT   26466              N22170550W067234880                                                                                 
SUSAEAENRT   26471              N20420810W066584870                                                                                 
SUSAEAENRT   26658              N26255410W130242150                                                                                 
SUSAEAENRT   26799              N55325990W163393840                                                                                 
SUSAEAENRT   26816              N28390870W088002160                                                                                 
SUSAEAENRT   26829              N27523960W084585730                                                                                 
SAFREAENRT   2720N              N27000000W020000000                                                                                 
SAFREAENRT   2723N              N27000000W023000000                                                                                 
SMESEAENRT   2735E              N27000000E035000000                                                                                 
SUSAEAENRT   27522              N56481900W161105030                                                                                 
SAFREAENRT   2800S              S28000000E000000000                                                                                 
SAFREAENRT   2805S              S28000000E005000000                                                                                 
SAFREAENRT   2805W              S28000000W005000000                                                                                 
SAFREAENRT   2810S              S28000000E010000000                                                                                 
SAFREAENRT   2820N              N28000000W020000000                                                                                 
SAFREAENRT   2822N              N28000000W022000000                                                                                 
SUSAEAENRT   28540              N63462230W160593190                                                                                 
SUSAEAENRT   28542              N62175680W165550800                                                                                 
SUSAEAENRT   28543              N62594410W165430360                                                                                 
SSPAEAENRT   28550              N79250900W155343550                                                                                 
SAFREAENRT   2920N              N29000000W020000000                                                                                 
SUSAEAENRT   29542              N62175680W165550800                                                                                 
SSPAEAENRT   29SOK              N26095910W170000000                                                                                 
SAFREAENRT   3006S              S30000000E006000000                                                                                 
SAFREAENRT   3010N              N30000000W010000000                                                                                 
SAFREAENRT   3014S              S30000000E014000000                                                                                 
SAFREAENRT   3015N              N30000000W015000000                                                                                 
SAFREAENRT   3015S              S30000000E015000000                                                                                 
S   EAENRT   3027N              N30000000W027000000                                                                                 
SAFREAENRT   3045S              S30000000E045000000                                                                                 
SAFREAENRT   3110N              N31000000W010000000                                                                                 
SEUREAENRT   31MCT              N55215600W0075416100                                                                                
SAFREAENRT   3210N              N32000000W010000000                                                                                 
SAFREAENRT   3310N              N33000000W010000000                                                                                 
SAFREAENRT   3410N              N34000000W010000000                                                                                 
SAFREAENRT   3510N              N35000000W010000000                                                                                 
SEUREAENRT   3600E              N36000000E000000000                                                                                 
SEUREAENRT   37N20              N37000000W020000000                                                                                 
S   EAENRT   37N30              N37000000W030000000                                                                                 
S   EAENRT   37N40              N37000000W040000000                                                                                 
S   EAENRT   37N50              N37000000W050000000                                                                                 
SUSAEAENRT   37N60              N37000000W060000000                                                                                 
SEUREAENRT   38N20              N38000000W020000000                                                                                 
S   EAENRT   38N30              N38000000W030000000                                                                                 
S   EAENRT   38N40              N38000000W040000000                                                                                 
S   EAENRT   38N50              N38000000W050000000                                                                                 
SUSAEAENRT   38N60              N38000000W060000000                                                                                 
SUSAEAENRT   38TBD              N25442640W095235640                                                                                 
SEUREAENRT   39N20              N39000000W020000000                                                                                 
S   EAENRT   39N30              N39000000W030000000                                                                                 
S   EAENRT   39N40              N39000000W040000000                                                                                 
S   EAENRT   39N50              N39000000W050000000                                                                                 
SUSAEAENRT   39N60              N39000000W060000000                                                                                 
SEUREAENRT   40N20              N40000000W020000000                                                                                 
S   EAENRT   40N30              N40000000W030000000                                                                                 
S   EAENRT   40N40              N40000000W040000000                                                                                 
S   EAENRT   40N50              N40000000W050000000                                                                                 
SUSAEAENRT   40N60              N40000000W060000000                                                                                 
SEUREAENRT   41N20              N41000000W020000000                                                                                 
S   EAENRT   41N30              N41000000W030000000                                                                                 
S   EAENRT   41N40              N41000000W040000000                                                                                 
S   EAENRT   41N50              N41000000W050000000                                                                                 
SEUREAENRT   42N20              N42000000W020000000                                                                                 
S   EAENRT   42N30              N42000000W030000000                                                                                 
S   EAENRT   42N40              N42000000W040000000                                                                                 
S   EAENRT   42N50              N42000000W050000000                                                                                 
SEUREAENRT   43N20              N43000000W020000000                                                                                 
S   EAENRT   43N30              N43000000W030000000                                                                                 
S   EAENRT   43N40              N43000000W040000000                                                                                 
S   EAENRT   43N50              N43000000W050000000                                                                                 
SEUREAENRT   44N20              N44000000W020000000                                                                                 
S   EAENRT   44N30              N44000000W030000000                                                                                 
S   EAENRT   44N40              N44000000W040000000                                                                                 
S   EAENRT   44N50              N44000000W050000000                                                                                 
SSPAEAENRT   44SYA              N54455910E180000000                                                                                 
SEUREAENRT   45N15              N45000000W015000000                                                                                 
SEUREAENRT   45N20              N45000000W020000000                                                                                 
S   EAENRT   45N30              N45000000W030000000                                                                                 
S   EAENRT   45N40              N45000000W040000000                                                                                 
S   EAENRT   45N50              N45000000W050000000                                                                                 
SSPAEAENRT   45SOK              N32450000E170000000                                                                                 
SEUREAENRT   46N10              N46000000W010000000                                                                                 
SEUREAENRT   46N15              N46000000W015000000                                                                                 
SEUREAENRT   46N20              N46000000W020000000                                                                                 
S   EAENRT   46N30              N46000000W030000000                                                                                 
S   EAENRT   46N40              N46000000W040000000                                                                                 
S   EAENRT   46N50              N46000000W050000000                                                                                 
SEUREAENRT   47N10              N47000000W010000000                                                                                 
SEUREAENRT   47N20              N47000000W020000000                                                                                 
S   EAENRT   47N30              N47000000W030000000                                                                                 
S   EAENRT   47N40              N47000000W040000000                                                                                 
S   EAENRT   47N50              N47000000W050000000                                                                                 
S   EAENRT   4850N              N48000000W050000000                                                                                 
SEUREAENRT   48N15              N48000000W015000000                                                                                 
SEUREAENRT   48N20              N48000000W020000000                                                                                 
S   EAENRT   48N30              N48000000W030000000                                                                                 
S   EAENRT   48N40              N48000000W040000000                                                                                 
S   EAENRT   48N50              N48000000W050000000                                                                                 
S   EAENRT   4950N              N49000000W050000000                                                                                 
SEUREAENRT   49LST              N55445710E0080554100                                                                                
SEUREAENRT   49N15              N49000000W015000000                                                                                 
SEUREAENRT   49N20              N49000000W020000000                                                                                 
S   EAENRT   49N30              N49000000W030000000                                                                                 
S   EAENRT   49N40              N49000000W040000000                                                                                 
S   EAENRT   49N50              N49000000W050000000                                                                                 
S   EAENRT   5050N              N50000000W050000000                                                                                 
SEUREAENRT   50N15              N50000000W015000000                                                                                 
SEUREAENRT   50N20              N50000000W020000000                                                                                 
S   EAENRT   50N30              N50000000W030000000                                                                                 
S   EAENRT   50N40              N50000000W040000000                                                                                 
S   EAENRT   50N50              N50000000W050000000                                                                                 
S   EAENRT   5150N              N51000000W050000000                                                                                 
SEUREAENRT   51N15              N51000000W015000000                                                                                 
SEUREAENRT   51N20              N51000000W020000000                                                                                 
S   EAENRT   51N30              N51000000W030000000                                                                                 
S   EAENRT   51N40              N51000000W040000000                                                                                 
S   EAENRT   51N50              N51000000W050000000                                                                                 
S   EAENRT   5250N              N52000000W050000000                                                                                 
SEUREAENRT   52N15              N52000000W015000000                                                                                 
SEUREAENRT   52N20              N52000000W020000000                                                                                 
S   EAENRT   52N30              N52000000W030000000                                                                                 
S   EAENRT   52N40              N52000000W040000000                                                                                 
S   EAENRT   52N50              N52000000W050000000                                                                                 
S   EAENRT   5350N              N53000000W050000000                                                                                 
SEUREAENRT   53N15              N53000000W015000000                                                                                 
SEUREAENRT   53N20              N53000000W020000000                                                                                 
S   EAENRT   53N30              N53000000W030000000                                                                                 
S   EAENRT   53N40              N53000000W040000000                                                                                 
S   EAENRT   53N50              N53000000W050000000                                                                                 
SEUREAENRT   54N15              N54000000W015000000                                                                                 
SEUREAENRT   54N20              N54000000W020000000                                                                                 
S   EAENRT   54N30              N54000000W030000000                                                                                 
S   EAENRT   54N40              N54000000W040000000                                                                                 
S   EAENRT   54N50              N54000000W050000000                                                                                 
S   EAENRT   5505W              S55000000W005000000                                                                                 
SEUREAENRT   55N15              N55000000W015000000                                                                                 
SEUREAENRT   55N20              N55000000W020000000                                                                                 
S   EAENRT   55N30              N55000000W030000000                                                                                 
S   EAENRT   55N40              N55000000W040000000                                                                                 
S   EAENRT   55N50              N55000000W050000000                                                                                 
SEUREAENRT   56N15              N56000000W015000000                                                                                 
SEUREAENRT   56N20              N56000000W020000000                                                                                 
S   EAENRT   56N30              N56000000W030000000                                                                                 
S   EAENRT   56N40              N56000000W040000000                                                                                 
S   EAENRT   56N50              N56000000W050000000                                                                                 
SUSAEAENRT   56N60              N56000000W060000000                                                                                 
SEUREAENRT   57N15              N57000000W015000000                                                                                 
SEUREAENRT   57N20              N57000000W020000000                                                                                 
S   EAENRT   57N30              N57000000W030000000                                                                                 
S   EAENRT   57N40              N57000000W040000000                                                                                 
S   EAENRT   57N50              N57000000W050000000                                                                                 
SUSAEAENRT   57N60              N57000000W060000000                                                                                 
S   EAENRT   5850N              N58000000W050000000                                                                                 
SUSAEAENRT   5890N              N58000000W090000000                                                                                 
SEUREAENRT   58N15              N58000000W015000000                                                                                 
SEUREAENRT   58N20              N58000000W020000000                                                                                 
S   EAENRT   58N30              N58000000W030000000                                                                                 
S   EAENRT   58N40              N58000000W040000000                                                                                 
S   EAENRT   58N50              N58000000W050000000                                                                                 
SUSAEAENRT   58N60              N58000000W060000000                                                                                 
S   EAENRT   5950N              N59000000W050000000                                                                                 
SEUREAENRT   59N15              N59000000W015000000                                                                                 
SEUREAENRT   59N20              N59000000W020000000                                                                                 
S   EAENRT   59N30              N59000000W030000000                                                                                 
S   EAENRT   59N40              N59000000W040000000                                                                                 
S   EAENRT   59N50              N59000000W050000000                                                                                 
SUSAEAENRT   59N60              N59000000W060000000                                                                                 
SEUREAENRT   60N20              N60000000W020000000                                                                                 
S   EAENRT   60N30              N60000000W030000000                                                                                 
S   EAENRT   60N40              N60000000W040000000                                                                                 
S   EAENRT   60N50              N60000000W050000000                                                                                 
SUSAEAENRT   60N60              N60000000W060000000                                                                                 
S   EAENRT   6140N              N61000000W040000000                                                                                 
SEUREAENRT   61N20              N61000000W020000000                                                                                 
S   EAENRT   61N30              N61000000W030000000                                                                                 
S   EAENRT   61N40              N61000000W040000000                                                                                 
S   EAENRT   61N50              N61000000W050000000                                                                                 
SUSAEAENRT   61N60              N61000000W060000000                                                                                 
SEUREAENRT   62N20              N62000000W020000000                                                                                 
S   EAENRT   62N30              N62000000W030000000                                                                                 
S   EAENRT   62N40              N62000000W040000000                                                                                 
S   EAENRT   62N50              N62000000W050000000                                                                                 
SUSAEAENRT   62N60              N62000000W060000000                                                                                 
S   EAENRT   6330N              N63000000W030000000                                                                                 
S   EAENRT   63N30              N63000000W030000000                                                                                 
S   EAENRT   63N40              N63000000W040000000                                                                                 
SUSAEAENRT   63N60              N63000000W060000000                                                                                 
S   EAENRT   64N30              N64000000W030000000                                                                                 
S   EAENRT   64N40              N64000000W040000000                                                                                 
SUSAEAENRT   64N60              N64000000W060000000                                                                                 
SUSAEAENRT   6860N              N68000000W060000000                                                                                 
SUSAEAENRT   69YEK              N57421497W088202957                                                                                 
SUSAEAENRT   7090N              N70000000W090000000                                                                                 
SSPAEAENRT   70SPY              N56055999W175000000                                                                                 
SSPAEAENRT   70SYA              N54090001E178100001                                                                                 
SEUREAENRT   71SNT              N45000000W016000000                                                                                 
SUSAEAENRT   74YZS              N62090109W087515943                                                                                 
SSPAEAENRT   993PQ              N34345910E160000000                                                                                 
SUSAEAENRT   AACEZ              N34331000W073594800                                                                                 
SUSAEAENRT   AADAM              N19493443W075035508                                                                                 
SSPAEAENRT   AADPO              S14100754W170580312                                                                                 
SUSAEAENRT   AAF50              N29403090W084565894                                                                                 
SSPAEAENRT   AAMYY              N51301880E171091170                                                                                 
SUSAEAENRT   ABACO              N27000000W0773409100                                                                                
SEUREAENRT   ABADA              N64155600E005175300                                                                                 
SEUREAENRT   ABADI              N40451900E018383000                                                                                 
SASIEAENRT   ABAGO              N56173000E144141200                                                                                 
SEUREAENRT   ABAKO              N37110200E0163957100                                                                                
SAFREAENRT   ABALO              N32195110W018074900                                                                                 
SEUREAENRT   ABANU              N70075910E026000000                                                                                 
SSPAEAENRT   ABARB              S32510641E154560489                                                                                 
SSPAEAENRT   ABASA              S04565190E107153970                                                                                 
SASIEAENRT   ABASA              N24263436E123125746                                                                                 
SUSAEAENRT   ABASI              N55305058W133110760                                                                                 
SSPAEAENRT   ABASS              S34350019E150563635                                                                                 
SAFREAENRT   ABATI              N34494510E0105733100                                                                                
SUSAEAENRT   ABBAY              N40063160W068215070                                                                                 
SUSAEAENRT   ABBOT              N24090630W094340960                                                                                 
SEUREAENRT   ABD07              N57053560W002071426                                                                                 
SEUREAENRT   ABDAB              N37532100E0103742100                                                                                
SEUREAENRT   ABDUL              N60174010E004524400                                                                                 
SEUREAENRT   ABEDA              N52194000E0015215100                                                                                
SSPAEAENRT   ABEDI              N58450000E1591959100                                                                                
S   EAENRT   ABERI              N87300000E032000000                                                                                 
SEUREAENRT   ABGOR              N63340000E0074759100                                                                                
SAFREAENRT   ABI06              N11324064E043152300                                                                                 
SAFREAENRT   ABI09              N11330127E043185733                                                                                 
SAFREAENRT   ABI15              N11324764E043104815                                                                                 
SAFREAENRT   ABI66              N11325876E043160011                                                                                 
SAFREAENRT   ABI90              N11350010E043184384                                                                                 
SAFREAENRT   ABI91              N11323594E043182629                                                                                 
SAFREAENRT   ABI92              N11344790E043181540                                                                                 
SAFREAENRT   ABI93              N11362868E043174372                                                                                 
SAFREAENRT   ABI99              N11361512E043182193                                                                                 
SEUREAENRT   ABIKI              N60271000E021251300                                                                                 
SMESEAENRT   ABILO              N34192410E030000000                                                                                 
SSPAEAENRT   ABILO              S05174800E1090253100                                                                                
SSPAEAENRT   ABINA              N64220500W171455010                                                                                 
SEUREAENRT   ABIRO              N35481610W0061722100                                                                                
SMESEAENRT   ABKAR              N19051100E040161200                                                                                 
SEUREAENRT   ABKER              N52103540E003420060                                                                                 
SEUREAENRT   ABLAT              N45232600E0133733100                                                                                
SEUREAENRT   ABLAX              N62101510E0065228100                                                                                
SASIEAENRT   ABLBG              N13503697E120064938                                                                                 
SEUREAENRT   ABLIN              N52465800W0045932100                                                                                
SSPAEAENRT   ABLOK              S12430444E143262439                                                                                 
SEUREAENRT   ABLUS              N56383000E0025617100                                                                                
SUSAEAENRT   ABNER              N34360730W135420820                                                                                 
SEUREAENRT   ABODA              N35245000W0074959100                                                                                
SSAMEAENRT   ABODE              S13455100W0385117100                                                                                
SASIEAENRT   ABOMA              N53290000E145550000                                                                                 
SUSAEAENRT   ABOME              N39293510W0715048100                                                                                
SEUREAENRT   ABOTA              N64203610W0142514100                                                                                
SEUREAENRT   ABRAK              N65224500E011481900                                                                                 
SAFREAENRT   ABRAM              N34195910E012381600                                                                                 
SEUREAENRT   ABRAN              N43370092E033071446                                                                                 
SUSAEAENRT   ABSOL              N27181110W150591200                                                                                 
SASIEAENRT   ABTOK              N06181710E102174400                                                                                 
SASIEAENRT   ABTOM              N03102382E101164318                                                                                 
SUSAEAENRT   ABUCU              N69334586W163500084                                                                                 
SEUREAENRT   ABUKI              N37320010E015333300                                                                                 
SSPAEAENRT   ABVUB              S08390100E1604006100                                                                                
SUSAEAENRT   ABXIZ              N61273558W166031733                                                                                 
SUSAEAENRT   AC044              N41153469W070032193                                                                                 
SUSAEAENRT   ACA06              N16462906W099522777                                                                                 
SUSAEAENRT   ACA08              N16403347W099383997                                                                                 
SUSAEAENRT   ACA09              N16361615W0993711100                                                                                
SUSAEAENRT   ACA11              N16374857W099383232                                                                                 
SUSAEAENRT   ACA12              N16474817W099573151                                                                                 
SUSAEAENRT   ACA13              N16482247W100003586                                                                                 
SUSAEAENRT   ACA15              N16493921W100001684                                                                                 
SUSAEAENRT   ACA20              N16383719W099253897                                                                                 
SUSAEAENRT   ACA23              N16423875W099515432                                                                                 
SUSAEAENRT   ACA26              N16450920W099553961                                                                                 
SUSAEAENRT   ACA72              N16462910W099522806                                                                                 
SUSAEAENRT   ACA96              N16463746W099533004                                                                                 
SUSAEAENRT   ACADE              N69044778W165472707                                                                                 
SUSAEAENRT   ACAFO              N55242122W162592724                                                                                 
SUSAEAENRT   ACATE              N59425093W162330970                                                                                 
SUSAEAENRT   ACIGE              N60262330W151460804                                                                                 
SUSAEAENRT   ACISU              N33533418W118495512                                                                                 
SUSAEAENRT   ACK19              N41153397W070032294                                                                                 
SUSAEAENRT   ACK60              N41181958W069594339                                                                                 
SUSAEAENRT   ACK76              N41200852W069571728                                                                                 
SUSAEAENRT   ACK83              N40531195W071465233                                                                                 
SSPAEAENRT   ACKER              S12011614E132121822                                                                                 
SUSAEAENRT   ACMEE              N22102776W075032297                                                                                 
SUSAEAENRT   ACONY              N18553852W066283881                                                                                 
SSPAEAENRT   ACOOL              S30000000E110000000                                                                                 
SSCAEAENRT   ACORA              N13392400W067300000                                                                                 
SASIEAENRT   ACQUA              N35094496E142094980                                                                                 
S   EAENRT   ACREZ              S07252310E072340757                                                                                 
SASIEAENRT   ACRON              N13372551E143015211                                                                                 
SUSAEAENRT   ACRUZ              N24000000W084344148                                                                                 
SUSAEAENRT   ACV11              N41065190W124130564                                                                                 
SUSAEAENRT   ACY07              N39244326W074261196                                                                                 
SUSAEAENRT   ACY87              N39235138W074254273                                                                                 
SASIEAENRT   ADABE              N09354893E138145031                                                                                 
SEUREAENRT   ADAMI              N38421610E010565600                                                                                 
SEUREAENRT   ADARA              N51300000W015000000                                                                                 
SEUREAENRT   ADAXA              N56175200E0185353100                                                                                
SASIEAENRT   ADAYI              N13340283E144574505                                                                                 
SSPAEAENRT   ADBON              N00000000E1541341100                                                                                
SUSAEAENRT   ADDAM              N37580416W076034152                                                                                 
SASIEAENRT   ADDAN              N26381237E128205377                                                                                 
SUSAEAENRT   ADDAX              N29585202W083595391                                                                                 
SUSAEAENRT   ADDAY              N23042308W156354250                                                                                 
SASIEAENRT   ADDPO              N07530910E132052500                                                                                 
SASIEAENRT   ADEDE              N13262901E144420721                                                                                 
SEUREAENRT   ADEKO              N59571210E005371700                                                                                 
S   EAENRT   ADEMA              N74024200E035000000                                                                                 
SUSAEAENRT   ADENI              N29560230W146085550                                                                                 
SASIEAENRT   ADERA              N68520000E0664359100                                                                                
SEUREAENRT   ADESO              N36315910E0263039100                                                                                
SEUREAENRT   ADEXI              N37204400E013013100                                                                                 
SASIEAENRT   ADGAB              N03054400E1123602100                                                                                
SASIEAENRT   ADGOR              N40252890E149390260                                                                                 
SSPAEAENRT   ADHAC              N09330915E167311379                                                                                 
SASIEAENRT   ADIBO              N46250000E138360600                                                                                 
SUSAEAENRT   ADIFO              N44053251W068322190                                                                                 
SEUREAENRT   ADIKU              N55205040E004175913                                                                                 
SEUREAENRT   ADINA              N43481080E030301236                                                                                 
SUSAEAENRT   ADIOS              N38551240W075101067                                                                                 
SUSAEAENRT   ADIPE              N32262310W064593000                                                                                 
SSPAEAENRT   ADISN              N04012600W1752108100                                                                                
SASIEAENRT   ADITO              N50270600E141300000                                                                                 
SSPAEAENRT   ADK01              N51550714W176435337                                                                                 
SSPAEAENRT   ADK02              N51561933W176435236                                                                                 
SSPAEAENRT   ADK04              N51560117W176440424                                                                                 
SSPAEAENRT   ADK05              N51534161W176450861                                                                                 
SSPAEAENRT   ADK06              N51503419W176390853                                                                                 
SSPAEAENRT   ADK07              N51543905W176404340                                                                                 
SSPAEAENRT   ADK27              N51533855W176364594                                                                                 
SSPAEAENRT   ADK54              N51594017W176192583                                                                                 
SASIEAENRT   ADKAK              N33541260E142094790                                                                                 
SEUREAENRT   ADKIM              N35495910W006012520                                                                                 
SUSAEAENRT   ADKOQ              N26161984W079315162                                                                                 
SSPAEAENRT   ADKOS              S44370160E166524960                                                                                 
SSPAEAENRT   ADLEC              N28273608W178000935                                                                                 
SUSAEAENRT   ADLEN              N64462290W169465590                                                                                 
SEUREAENRT   ADMAS              N37334310E017512900                                                                                 
SEUREAENRT   ADMIN              N61115200E0062236100                                                                                
SEUREAENRT   ADN24              N56553200W002065900                                                                                 
SEUREAENRT   ADN30              N56492010W002043500                                                                                 
SEUREAENRT   ADN40              N56393410W002005000                                                                                 
SASIEAENRT   ADNAP              N37115090E145395870                                                                                 
SASIEAENRT   ADNEP              N08034350E101031820                                                                                 
SAFREAENRT   ADNGN              S29421074E031190461                                                                                 
SASIEAENRT   ADNIM              N15212739E121342065                                                                                 
SSPAEAENRT   ADNUG              S10572010E1604440100                                                                                
SUSAEAENRT   ADOOR              N29240027W078332050                                                                                 
SUSAEAENRT   ADOPE              N28305000W1484929100                                                                                
SUSAEAENRT   ADORE              N33542800W118290700                                                                                 
SSPAEAENRT   ADOWA              N13422510W165493500                                                                                 
SUSAEAENRT   ADOWE              N45120810W065355761                                                                                 
SMESEAENRT   ADPOP              N19030320E068000000                                                                                 
SEUREAENRT   ADREN              N38501710E0174408100                                                                                
SUSAEAENRT   ADRUL              N68400060W080540180                                                                                 
SEUREAENRT   ADRUX              N40455198E009355600                                                                                 
SUSAEAENRT   ADSAM              N69551510W0631311100                                                                                
SUSAEAENRT   ADSEL              N18570710W0782604100                                                                                
SUSAEAENRT   ADSOR              N46190610W063581200                                                                                 
SUSAEAENRT   ADTIL              N34584110W134421400                                                                                 
SASIEAENRT   ADTIN              N13282364E144431216                                                                                 
SSPAEAENRT   ADUBE              N19122666E167090059                                                                                 
SEUREAENRT   ADUBI              N35495910W006192600                                                                                 
SSPAEAENRT   ADUFO              N07143794E157462158                                                                                 
SUSAEAENRT   ADUIM              N49185910W067224799                                                                                 
SEUREAENRT   ADUKA              N38334310E0115702100                                                                                
SEUREAENRT   ADUKI              N54193200E013213700                                                                                 
SUSAEAENRT   ADUMM              N33515997W128470436                                                                                 
SUSAEAENRT   ADUSE              N58470821W162075285                                                                                 
SUSAEAENRT   ADYNA              N38450000W0680759100                                                                                
SSAMEAENRT   AER14              S34321200W058143480                                                                                 
SSAMEAENRT   AER15              S34353120W058120000                                                                                 
SSAMEAENRT   AER21              S34314701W058181584                                                                                 
SSAMEAENRT   AER22              S34273811W058150170                                                                                 
SSAMEAENRT   AER23              S34272410W058231189                                                                                 
SUSAEAENRT   AFE08              N56580033W133560852                                                                                 
SUSAEAENRT   AFE26              N56593168W134090060                                                                                 
SUSAEAENRT   AFHAS              N41103275W070192121                                                                                 
SUSAEAENRT   AFMUG              N37115056W076004021                                                                                 
SMESEAENRT   AFNAN              N25085310E0515556100                                                                                
SUSAEAENRT   AFONE              N25180000W132094200                                                                                 
SSPAEAENRT   AFOYU              N06392481E158350602                                                                                 
SUSAEAENRT   AFPIV              N54000696W166342149                                                                                 
SSCAEAENRT   AFTON              N14435910W0681759100                                                                                
SSPAEAENRT   AFTRA              S09110600E1605653100                                                                                
SUSAEAENRT   AGADA              N18435089W064202597                                                                                 
SEUREAENRT   AGALA              N42570000E048060000                                                                                 
SMESEAENRT   AGAPI              N34520910E030000000                                                                                 
SEUREAENRT   AGARI              N35575210E015370000                                                                                 
SEUREAENRT   AGASA              N41480610E0104548100                                                                                
SUSAEAENRT   AGASE              N28034102W082495626                                                                                 
SEUREAENRT   AGATO              N42160000E0483223100                                                                                
SASIEAENRT   AGAVO              N37100000E124000000                                                                                 
SSPAEAENRT   AGAYE              N08345680E167341099                                                                                 
SAFREAENRT   AGDAL              N34070000W0071851100                                                                                
SSPAEAENRT   AGECA              N08512776E167533751                                                                                 
SSPAEAENRT   AGEDI              N44100000E155054810                                                                                 
SSPAEAENRT   AGEDU              S34284410E177293050                                                                                 
SEUREAENRT   AGEKO              N37305900E0152600100                                                                                
SASIEAENRT   AGEMO              N56071800E145150600                                                                                 
SEUREAENRT   AGENA              N41324134E0032918100                                                                                
SSPAEAENRT   AGERA              S04055910E1492635100                                                                                
SUSAEAENRT   AGGET              N44403361W124035475                                                                                 
SASIEAENRT   AGIKA              N30001326E131262787                                                                                 
SASIEAENRT   AGIRE              N08450710E1322734100                                                                                
SEUREAENRT   AGISA              N39440000E023210000                                                                                 
SEUREAENRT   AGISU              N53525400E006295800                                                                                 
SASIEAENRT   AGITA              N42193600E132114800                                                                                 
SUSAEAENRT   AGMIV              N61452162W166052507                                                                                 
SEUREAENRT   AGNET              N42135910E048130000                                                                                 
SEUREAENRT   AGNIS              N39482610E0144502100                                                                                
SEUREAENRT   AGNON              N62351700E0101721100                                                                                
SASIEAENRT   AGOBA              N01584110E108300000                                                                                 
SASIEAENRT   AGODY              N15121154E145563179                                                                                 
SUSAEAENRT   AGOGE              N44044857W124124925                                                                                 
SSPAEAENRT   AGOLY              N09300358E167352072                                                                                 
SEUREAENRT   AGOMO              N45010010E0124806100                                                                                
SEUREAENRT   AGORI              N57000000W013000000                                                                                 
SASIEAENRT   AGOSA              N03084010E101131300                                                                                 
SSPAEAENRT   AGOXI              S10151500E158335000                                                                                 
SUSAEAENRT   AGPAL              N54314500W1304645100                                                                                
SSPAEAENRT   AGPOK              S25281710E1121405100                                                                                
S   EAENRT   AGPOM              N00000000W1450617100                                                                                
SASIEAENRT   AGPOP              N02104110E1111324100                                                                                
SSPAEAENRT   AGREX              S33433040E175335170                                                                                 
SASIEAENRT   AGSAM              N11281800E1123517100                                                                                
SSPAEAENRT   AGSEL              S19552847E109410090                                                                                 
SASIEAENRT   AGSUS              N36454710E130412600                                                                                 
SSPAEAENRT   AGTOS              S19190000E1771229100                                                                                
SUSAEAENRT   AGUAN              N15535310W0852546100                                                                                
SSCAEAENRT   AGUJA              N10573010W077250000                                                                                 
SAFREAENRT   AGUMO              N25422280W018352760                                                                                 
SUSAEAENRT   AGUNE              N38062900W072500200                                                                                 
SSPAEAENRT   AGUNG              S07592935E115410375                                                                                 
SASIEAENRT   AGUPO              N04353610E112520000                                                                                 
SASIEAENRT   AGVAR              N19245078E120374247                                                                                 
SUSAEAENRT   AGXAN              N71165972W155574264                                                                                 
SEUREAENRT   AH281              N56165942E010490130                                                                                 
SEUREAENRT   AH282              N56161756E0105546100                                                                                
SUSAEAENRT   AHABB              N26484490W080002078                                                                                 
SUSAEAENRT   AHAYY              N36561810W072525800                                                                                 
SUSAEAENRT   AHCUJ              N64260796W162300778                                                                                 
SUSAEAENRT   AHERN              N27103956W080015177                                                                                 
SUSAEAENRT   AHFAR              N34192362W119332356                                                                                 
SUSAEAENRT   AHJUN              N30541130W081243025                                                                                 
SUSAEAENRT   AHKEB              N38153092W076213946                                                                                 
SUSAEAENRT   AHNDO              N24254110W131244200                                                                                 
SASIEAENRT   AIBIE              N07204910E133233000                                                                                 
SUSAEAENRT   AIBUX              N44043180W068444140                                                                                 
SASIEAENRT   AIKOH              N27583090E128560550                                                                                 
SUSAEAENRT   AINKK              N61100578W150311702                                                                                 
SEUREAENRT   AIOSA              N41554110E0171453100                                                                                
SSPAEAENRT   AIREE              N11550000W169330600                                                                                 
SSPAEAENRT   AIRMA              S29544311E115000000                                                                                 
SASIEAENRT   AISAR              N25565090E122293560                                                                                 
SUSAEAENRT   AIX02              N60240498W166092244                                                                                 
SUSAEAENRT   AIX16              N60221895W166154164                                                                                 
SUSAEAENRT   AIX21              N60220612W166163640                                                                                 
SASIEAENRT   AJA09              N13312861E144522471                                                                                 
SASIEAENRT   AJA12              N13325217E144550871                                                                                 
SASIEAENRT   AJA58              N13295945E144492981                                                                                 
SUSAEAENRT   AJBOS              N56332103W169505680                                                                                 
SASIEAENRT   AJENT              N24001710E119570600                                                                                 
SUSAEAENRT   AJGON              N39554056W073532111                                                                                 
SUSAEAENRT   AJINK              N20070000W163180000                                                                                 
SUSAEAENRT   AJJAY              N43434055W069360822                                                                                 
SUSAEAENRT   AJLIP              N30152188W086203334                                                                                 
SEUREAENRT   AJO27              N41560600E008114800                                                                                 
SUSAEAENRT   AK256              N56520000W1635659100                                                                                
SUSAEAENRT   AKACO              N43565352W069000349                                                                                 
SEUREAENRT   AKADO              N45195910E012300000                                                                                 
SEUREAENRT   AKALA              N70590310E029091900                                                                                 
SSPAEAENRT   AKAMO              S43532540E172175710                                                                                 
SASIEAENRT   AKARA              N31300000E123300000                                                                                 
SEUREAENRT   AKATI              N70075910E0315859100                                                                                
SSPAEAENRT   AKAVI              S39595880E174154970                                                                                 
SUSAEAENRT   AKBOY              N60171797W145171849                                                                                 
SEUREAENRT   AKCAK              N41254400E0304328100                                                                                
SAFREAENRT   AKDAK              N10205910W0153559100                                                                                
SSPAEAENRT   AKDIP              S14291510E108263330                                                                                 
SEUREAENRT   AKELI              N54000000W010000000                                                                                 
SAFREAENRT   AKEMA              N34360200W007463600                                                                                 
SSPAEAENRT   AKERI              N60370000E1782659100                                                                                
SUSAEAENRT   AKERS              N37584152W066091967                                                                                 
SSPAEAENRT   AKESA              S15495686E111454213                                                                                 
SASIEAENRT   AKESI              N42331640E144042357                                                                                 
SUSAEAENRT   AKHAT              N57012985W136081185                                                                                 
SUSAEAENRT   AKHOG              N56533792W136214406                                                                                 
SEUREAENRT   AKINA              N36584900E0261454100                                                                                
SEUREAENRT   AKIRI              N63320810E010192200                                                                                 
SSPAEAENRT   AKISU              N47330261E1611959100                                                                                
S   EAENRT   AKITE              S07233916E072313956                                                                                 
SEUREAENRT   AKIVO              N59575110W009300000                                                                                 
SUSAEAENRT   AKKID              N58562650W140192166                                                                                 
SSPAEAENRT   AKLOM              S35212830E178233900                                                                                 
SASIEAENRT   AKMIL              N11513540E080065460                                                                                 
SASIEAENRT   AKMON              N08125310E1101305100                                                                                
SSPAEAENRT   AKNAK              S13131200E1642335100                                                                                
SSAMEAENRT   AKNUB              S24293900W044342280                                                                                 
SSCAEAENRT   AKNUR              N10491410W0661306100                                                                                
SEUREAENRT   AKOKO              N53141600E0031206100                                                                                
SASIEAENRT   AKOLA              N48360000E1401059100                                                                                
SEUREAENRT   AKORO              N37123600E0242335100                                                                                
SEUREAENRT   AKORU              N70120610E026000000                                                                                 
SASIEAENRT   AKOTA              N16274330E117122430                                                                                 
SMESEAENRT   AKR09              N34294072E033121552                                                                                 
SMESEAENRT   AKR11              N34321403E033112252                                                                                 
SMESEAENRT   AKR13              N34272913E033104914                                                                                 
SMESEAENRT   AKR31              N34314649E033130754                                                                                 
SMESEAENRT   AKR59              N34335758E033045091                                                                                 
SMESEAENRT   AKR60              N34335574E033045793                                                                                 
